S00C00004D4355312E7372656302
S11300000C942A000C943C000C9430010C943C0099
S11300100C943C000C943C000C943C000C943C006C
S11300200C943C000C945A010C943C000C943C003D
S11300300C943C000C943C000C943C000C943C004C
S11300400C943C000C943C000C943C000C943C003C
S11300500C943C0011241FBECFE5D8E0DEBFCDBF19
S113006020E0A0E6B0E001C01D92A136B207E1F79E
S11300700E94E8000C94CB030C94000087B18064C8
S113008087B987B1806887B986B1806886B986B137
S1130090846086B908958930B8F497B1907E892B2D
S11300A087B986B1806486B9349BFECF8FEC97E024
S11300B00197F1F700C0000024B185B190E0982FBA
S11300C08827820F911D08958FEF9FEF0895E1997E
S11300D0FECF90E09FBB8EBB6DBB8CB384608CBBAA
S11300E08CB382608CBB089581B3877F81BB85B755
S11300F0886085BF85B7846085BF8BB780688BBFF8
S11301000895843150F460E070E0CB010E94B8019E
S113011061E080E00E94670008959CEE980F9A3099
S113012058F460E070E080E89EE30E94B80161E06A
S113013080E00E946700089592EE980F953058F47D
S113014060E070E080E09FE30E94B80161E080E03D
S11301500E94670008959DED980F953058F460E073
S113016070E080E49FE30E94B80161E080E00E94B7
S11301706700089598ED980F9B3058F460E070E0A4
S113018080E89FE30E94B80161E080E00E9467007C
S11301900895833350F060E070E080E89FE30E94AC
S11301A0B80162E080E00E9467000895789483E3D8
S11301B090E00E94F0010E943E000E949E010E9475
S11301C074000E94920161E080E00E94670008953B
S11301D00E94D6008AB38E7F8ABB812C912C540155
S11301E080E00E944B006C01990FEE08FF088C140C
S11301F09D04AE04BF04A1F3A0E0BAE0A7019601F8
S11302000E949D034B015C01992334F42FEF820E6D
S113021023E0921EA11CB11CD501C401072E7AE073
S1130220B595A795979587957A95D1F7702D6AE03E
S113023070E00E948903862F609360000E94810011
S1130240809160000E94FB018FEF90E722E08150D3
S113025090402040E1F700C0000046015701C0CFA4
S11302601F920F920FB60F9211242F933F934F9327
S11302705F936F937F938F939F93AF93BF93EF930A
S1130280FF938091600088528B3018F483E50E94BC
S1130290FB01FF91EF91BF91AF919F918F917F915E
S11302A06F915F914F913F912F910F900FBE0F90DF
S11302B01F9018951F920F920FB60F9211242F932F
S11302C03F934F935F936F937F938F939F93AF93DA
S11302D0BF93CF93DF93EF93FF93C0E0D0E00BC0C5
S11302E02196CE30D1053CF063E080E00E946700A7
S11302F081E40E94FB0180916000833388F7FF91C1
S1130300EF91DF91CF91BF91AF919F918F917F91A9
S11303106F915F914F913F912F910F900FBE0F906E
S11303201F9018958EB581608EBD8EB584608EBD8C
S11303301DBC1CBC89B7846089BF089583B78064E1
S113034083BF83B7886083BF87B3886087BB83B765
S11303508E7F83BF83B7826083BF83B78B7F83BF66
S113036083B78F7E83BF83B7806283BF1CBE08952B
S1130370CF92DF92EF92FF926B017C0120E030E09C
S1130380A9010E9417031816E4F420E030E040E8C5
S11303905FE3C701B6010E946E02181694F020E0D4
S11303A030E040E853E4C701B6010E941C0320E09A
S11303B030E040E85FE30E9401020E9473026CBFD8
S11303C00AC020E030E0A901C701B6010E946E0214
S11303D018160CF01CBEFF90EF90DF90CF9008959C
S11303E089B910BC8AB180618AB98AB188608AB936
S11303F086E880BD08955D9BFECF8CB95E9BFECFE1
S113040008955058BB27AA270E9419020C94DD02B4
S11304100E94CF0238F00E94D60220F039F49F3FA8
S113042019F426F40C94CC020EF4E095E7FB0C943A
S1130430C602E92F0E94EE0258F3BA176207730747
S11304408407950720F079F4A6F50C9410030EF4B4
S1130450E0950B2EBA2FA02D0B01B90190010C01D0
S1130460CA01A0011124FF27591B99F0593F50F4E8
S1130470503E68F11A16F040A22F232F342F442740
S1130480585FF3CF469537952795A795F040539538
S1130490C9F77EF41F16BA0B620B730B840BBAF008
S11304A09150A1F0FF0FBB1F661F771F881FC2F773
S11304B00EC0BA0F621F731F841F48F48795779587
S11304C06795B795F7959E3F08F0B0CF9395880F41
S11304D008F09927EE0F9795879508950E94A20238
S11304E008F481E008950E94F60288F09F5798F07E
S11304F0B92F9927B751B0F0E1F0660F771F881F25
S1130500991F1AF0BA95C9F714C0B13091F00E943E
S11305101003B1E008950C941003672F782F8827F7
S1130520B85F39F0B93FCCF3869577956795B39565
S1130530D9F73EF490958095709561957F4F8F4FD4
S11305409F4F0895990F0008550FAA0BE0E8FEEF9E
S113055016161706E807F907C0F012161306E40783
S1130560F50798F0621B730B840B950B39F40A267C
S113057061F0232B242B252B21F408950A2609F45A
S1130580A140A6958FEF811D811D089597F99F675E
S113059080E870E060E008959FEF80EC0895002407
S11305A00A941616170618060906089500240A94D4
S11305B012161306140605060895092E0394000C5A
S11305C011F4882352F0BB0F40F4BF2B11F460FFE9
S11305D004C06F5F7F4F8F4F9F4F089557FD905812
S11305E0440F551F59F05F3F71F04795880F97FBF3
S11305F0991F61F09F3F79F08795089512161306AD
S11306001406551FF2CF4695F1DF08C016161706DB
S11306101806991FF1CF8695710561050894089510
S1130620E894BB2766277727CB0197F908950E94A2
S1130630A20208F48FEF08950E942F030C94DD02A8
S11306400E94CF0238F00E94D60220F0952311F0C8
S11306500C94C6020C94CC0211240C9411030E9435
S1130660EE0270F3959FC1F3950F50E0551F629F02
S1130670F001729FBB27F00DB11D639FAA27F00DF7
S1130680B11DAA1F649F6627B00DA11D661F829F1E
S11306902227B00DA11D621F739FB00DA11D621F03
S11306A0839FA00D611D221F749F3327A00D611D20
S11306B0231F849F600D211D822F762F6A2F112402
S11306C09F5750409AF0F1F088234AF0EE0FFF1F35
S11306D0BB1F661F771F881F91505040A9F79E3F8C
S11306E0510580F00C94C6020C9411035F3FE4F3AF
S11306F0983ED4F3869577956795B795F795E795E2
S11307009F5FC1F7FE2B880F911D9695879597F9EA
S1130710089597FB072E16F4009407D077FD09D0AF
S11307200E94A80307FC05D03EF4909581959F4F45
S11307300895709561957F4F08950E94BC03A59F0D
S1130740900DB49F900DA49F800D911D11240895C8
S1130750AA1BBB1B51E107C0AA1FBB1FA617B707E3
S113076010F0A61BB70B881F991F5A95A9F78095FF
S11307709095BC01CD010895A29FB001B39FC00123
S1130780A39F700D811D1124911DB29F700D811DB9
S10D07901124911D0895F894FFCF81
S9030000FC
