:100000000C942A000C9434000C9434000C943400AA
:100010000C9434000C9434000C9434000C94340090
:100020000C9434000C9434000C9434000C94340080
:100030000C9434000C9434000C9434000C94340070
:100040000C9434000C9434000C9434000C94340060
:100050000C94340011241FBECFE5D8E0DEBFCDBF25
:100060000E94BA000C9469030C94000087B180646C
:1000700087B986B1806886B986B1816086B986B154
:10008000826086B986B1846086B908958930B8F4F3
:1000900097B1907E892B87B986B1806486B9349BED
:1000A000FECF8FEC97E00197F1F700C0000024B17C
:1000B00085B190E0982F8827820F911D08958FEFCA
:1000C0009FEF0895843168F485B3846085BB85B360
:1000D0008F7E85BB85B38F7B85BB8BB38D7F8BBBC1
:1000E00008959CEE980F943168F485B3806185BBC8
:1000F00085B38B7F85BB85B38F7B85BB8BB38D7FB2
:100100008BBB089598ED980F9B3068F485B38B7F77
:1001100085BB85B38F7E85BB85B3806485BB8BB380
:100120008D7F8BBB0895833390F060E070E080E0BA
:100130009FE30E94250185B38B7F85BB85B38F7EAE
:1001400085BB85B3806485BB8BB382608BBB089510
:100150006AE979E989E99DE30E945D01089583E3F5
:1001600090E00E9495010E94F1000E940B010E9404
:10017000360008950E94AF0084B3846084BB84B3CA
:10018000806184BB84B3806484BB8AB382608ABB91
:100190008AB38E7F8ABB0E94A001C82F0E94620092
:1001A000C33541F460E070E0CB010E942501C83204
:1001B000F0F7F1CFC13419F40E94A800ECCF80E031
:1001C0000E944600BC01990F880B990B0E944702C0
:1001D00020E030E040E85AE30E94FC020E94250142
:1001E000DACF83B7806483BF83B7886083BF87B368
:1001F000886087BB83B78E7F83BF83B7826083BFEE
:1002000083B78B7F83BF83B78F7E83BF83B78062C3
:1002100083BF1CBE089583B7806483BF83B78860A3
:1002200083BF81B3806881BB83B78E7F83BF83B771
:100230008D7F83BF83B7846083BF83B78F7E83BF87
:1002400083B7806283BF13BC0895CF92DF92EF9291
:10025000FF926B017C0120E030E0A9010E94F702CF
:100260001816E4F420E030E040E85FE3C701B6018F
:100270000E941102181694F020E030E040E853E4A8
:10028000C701B6010E94FC0220E030E040E85FE3D5
:100290000E94A4010E9416026CBF0AC020E030E058
:1002A000A901C701B6010E94110218160CF01CBE6C
:1002B000FF90EF90DF90CF900895CF92DF92EF9272
:1002C000FF926B017C0120E030E0A9010E94F7025F
:1002D0001816E4F420E030E040E85FE3C701B6011F
:1002E0000E941102181694F020E030E040E853E438
:1002F000C701B6010E94FC0220E030E040E85FE365
:100300000E94A4010E94160263BD0AC020E030E0F2
:10031000A901C701B6010E94110218160CF013BC06
:10032000FF90EF90DF90CF90089589B910BC8AB10B
:1003300080618AB98AB188608AB986E880BD0895EB
:100340005F9BFECF8CB108955058BB27AA270E940F
:10035000BC010C94BD020E94AF0238F00E94B602AC
:1003600020F039F49F3F19F426F40C94AC020EF4FB
:10037000E095E7FB0C94A602E92F0E94CE0258F309
:10038000BA17620773078407950720F079F4A6F57A
:100390000C94F0020EF4E0950B2EBA2FA02D0B0159
:1003A000B90190010C01CA01A0011124FF27591BBA
:1003B00099F0593F50F4503E68F11A16F040A22FC0
:1003C000232F342F4427585FF3CF46953795279531
:1003D000A795F0405395C9F77EF41F16BA0B620B30
:1003E000730B840BBAF09150A1F0FF0FBB1F661F77
:1003F000771F881FC2F70EC0BA0F621F731F841FBA
:1004000048F4879577956795B795F7959E3F08F0DF
:10041000B0CF9395880F08F09927EE0F97958795A1
:1004200008950E94820208F481E008950E94D60295
:1004300088F09F5798F0B92F9927B751B0F0E1F0A5
:10044000660F771F881F991F1AF0BA95C9F714C055
:10045000B13091F00E94F002B1E008950C94F002E6
:10046000672F782F8827B85F39F0B93FCCF386958E
:1004700077956795B395D9F73EF4909580957095EB
:1004800061957F4F8F4F9F4F0895E89409C097FB68
:100490003EF490958095709561957F4F8F4F9F4F5B
:1004A0009923A9F0F92F96E9BB279395F69587959F
:1004B00077956795B795F111F8CFFAF4BB0F11F462
:1004C00060FF1BC06F5F7F4F8F4F9F4F16C0882309
:1004D00011F096E911C0772321F09EE8872F762F3F
:1004E00005C0662371F096E8862F70E060E02AF080
:1004F0009A95660F771F881FDAF7880F969587956C
:1005000097F90895990F0008550FAA0BE0E8FEEF40
:1005100016161706E807F907C0F012161306E407C7
:10052000F50798F0621B730B840B950B39F40A26C0
:1005300061F0232B242B252B21F408950A2609F49E
:10054000A140A6958FEF811D811D089597F99F67A2
:1005500080E870E060E008959FEF80EC089500244B
:100560000A941616170618060906089500240A9418
:1005700012161306140605060895092E0394000C9E
:1005800011F4882352F0BB0F40F4BF2B11F460FF2D
:1005900004C06F5F7F4F8F4F9F4F089557FD905856
:1005A000440F551F59F05F3F71F04795880F97FB37
:1005B000991F61F09F3F79F08795089512161306F1
:1005C0001406551FF2CF4695F1DF08C01616170620
:1005D0001806991FF1CF8695710561050894089555
:1005E000E894BB2766277727CB0197F908950E94E7
:1005F000820208F48FEF08950E940F030C94BD024D
:100600000E94AF0238F00E94B60220F0952311F04C
:100610000C94A6020C94AC0211240C94F1020E94DA
:10062000CE0270F3959FC1F3950F50E0551F629F66
:10063000F001729FBB27F00DB11D639FAA27F00D3B
:10064000B11DAA1F649F6627B00DA11D661F829F62
:100650002227B00DA11D621F739FB00DA11D621F47
:10066000839FA00D611D221F749F3327A00D611D64
:10067000231F849F600D211D822F762F6A2F112446
:100680009F5750409AF0F1F088234AF0EE0FFF1F79
:10069000BB1F661F771F881F91505040A9F79E3FD0
:1006A000510580F00C94A6020C94F1025F3FE4F334
:1006B000983ED4F3869577956795B795F795E79526
:1006C0009F5FC1F7FE2B880F911D9695879597F92F
:0606D0000895F894FFCF2D
:00000001FF
