S00C00004D4355322E7372656301
S11300000C942A000C943C000C943C000C943C008E
S11300100C943C000C943C000C943C000C943C006C
S11300200C943C000C943C000C943C000C943C005C
S11300300C943C000C943C000C943C000C943C004C
S11300400C943C000C943C000C943C000C943C003C
S11300500C943C0011241FBECFE5D8E0DEBFCDBF19
S113006020E0A0E6B0E001C01D92A136B207E1F79E
S11300700E94C7000C94FD030C94000087B18064B7
S113008087B986B1806886B986B18E7F86B986B114
S1130090826086B986B1846086B908958930B8F4DF
S11300A097B1907E892B87B986B1806486B9349BD9
S11300B0FECF89EF90E00197F1F700C0000024B172
S11300C085B190E0982F8827820F911D08958FEFB6
S11300D09FEF089560E070E080E09FE30E947F015D
S11300E00895873469F028F48134D9F18534A9F16D
S11300F00895833549F1893579F08235E1F518C0E1
S113010085B3846085BB85B38F7E85BB85B38F7BC8
S113011085BB10926000089585B38B7F85BB85B342
S1130120806185BB85B38F7B85BB10926000089589
S113013085B38B7F85BB85B38F7E85BB85B3806498
S113014085BB10926000089560E070E0CB010E94CE
S1130150470181E08093600008958BB382608BBB7C
S113016008950E946A0060E070E0CB010E9447019C
S113017081E08093600008958CE090E00E94B701D4
S11301800E9413010E942D010E943E0008950E94C6
S1130190BC0084B3846084BB84B3806184BB84B3B7
S11301A0806484BB8AB382608ABB8AB38E7F8ABB35
S11301B000E010E0D0E0C0E004C00C2D1D2DDE2DC9
S11301C0CF2D0E94C2010E94710080E00E944E0067
S11301D0BC01990F880B990B0E94DB02C62ED72E07
S11301E0E82EF92E262F372F482F592F602F712FE5
S11301F08D2F9C2F0E943302882319F320E030ECCA
S11302004FE754E46C2D7D2D8E2D9F2D0E943802D6
S1130210209160002111D1CF0E9447010C2D1D2D8A
S1130220DE2DCF2DCECF83B7806483BF83B78860A4
S113023083BF87B3886087BB83B78E7F83BF83B751
S1130240826083BF83B78B7F83BF83B78F7E83BF77
S113025083B7806283BF1CBE089585B5806485BD65
S113026085B5886085BD81B3806881BB85B58B7F8A
S113027085BD85B5826085BD85B5816085BD85B543
S11302808F7E85BD85B5806285BD13BC0895CF92F0
S1130290DF92EF92FF926B017C0120E030E0A90134
S11302A00E948B031816E4F420E030E040E85FE39A
S11302B0C701B6010E943302181694F020E030E022
S11302C040E853E4C701B6010E94900320E030E007
S11302D040E85FE30E94C6010E94AA026CBF0AC004
S11302E020E030E0A901C701B6010E9433021816CC
S11302F00CF01CBEFF90EF90DF90CF900895CF924A
S1130300DF92EF92FF926B017C0120E030E0A901C3
S11303100E948B031816E4F420E030E040E85FE329
S1130320C701B6010E943302181694F020E030E0B1
S113033040E853E4C701B6010E94900320E030E096
S113034040E85FE30E94C6010E94AA0263BD0AC09E
S113035020E030E0A901C701B6010E94330218165B
S11303600CF013BCFF90EF90DF90CF90089589B903
S113037010BC8AB180618AB98AB188608AB986E87A
S113038080BD08955F9BFECF8CB108955058BB2764
S1130390AA270E94DE010C9451030E94430338F003
S11303A00E944A0320F039F49F3F19F426F40C9478
S11303B040030EF4E095E7FB0C943A03E92F0E9406
S11303C0620358F3BA17620773078407950720F08E
S11303D079F4A6F50C9484030EF4E0950B2EBA2F51
S11303E0A02D0B01B90190010C01CA01A001112437
S11303F0FF27591B99F0593F50F4503E68F11A16E3
S1130400F040A22F232F342F4427585FF3CF469573
S113041037952795A795F0405395C9F77EF41F1695
S1130420BA0B620B730B840BBAF09150A1F0FF0F5F
S1130430BB1F661F771F881FC2F70EC0BA0F621F4B
S1130440731F841F48F4879577956795B795F7953B
S11304509E3F08F0B0CF9395880F08F09927EE0FD0
S11304609795879508950E94160308F481E00895EE
S11304700E944C020C9451030E944A0358F00E94BB
S1130480430340F029F45F3F29F00C943A035111DF
S11304900C9485030C9440030E94620368F399232F
S11304A0B1F3552391F3951B550BBB27AA2762176C
S11304B07307840738F09F5F5F4F220F331F441F79
S11304C0AA1FA9F335D00E2E3AF0E0E832D09150AD
S11304D05040E695001CCAF72BD0FE2F29D0660F9A
S11304E0771F881FBB1F261737074807AB07B0E8DD
S11304F009F0BB0B802DBF01FF2793585F4F3AF0E3
S11305009E3F510578F00C943A030C9485035F3FA9
S1130510E4F3983ED4F3869577956795B795F79568
S11305209F5FC9F7880F911D9695879597F9089550
S1130530E1E0660F771F881FBB1F621773078407EC
S1130540BA0720F0621B730B840BBA0BEE1F88F7FB
S1130550E09508950E946A0388F09F5798F0B92F98
S11305609927B751B0F0E1F0660F771F881F991FE4
S11305701AF0BA95C9F714C0B13091F00E948403FF
S1130580B1E008950C948403672F782F8827B85F0F
S113059039F0B93FCCF3869577956795B395D9F73C
S11305A03EF490958095709561957F4F8F4F9F4F46
S11305B00895E89409C097FB3EF490958095709552
S11305C061957F4F8F4F9F4F9923A9F0F92F96E99B
S11305D0BB279395F695879577956795B795F11110
S11305E0F8CFFAF4BB0F11F460FF1BC06F5F7F4FAD
S11305F08F4F9F4F16C0882311F096E911C07723BF
S113060021F09EE8872F762F05C0662371F096E8C7
S1130610862F70E060E02AF09A95660F771F881F96
S1130620DAF7880F9695879597F90895990F00083A
S1130630550FAA0BE0E8FEEF16161706E807F907B0
S1130640C0F012161306E407F50798F0621B730B4B
S1130650840B950B39F40A2661F0232B242B252BCC
S113066021F408950A2609F4A140A6958FEF811D6F
S1130670811D089597F99F6780E870E060E0089510
S11306809FEF80EC089500240A94161617061806A6
S11306900906089500240A94121613061406050682
S11306A00895092E0394000C11F4882352F0BB0F13
S11306B040F4BF2B11F460FF04C06F5F7F4F8F4F76
S11306C09F4F089557FD9058440F551F59F05F3FB1
S11306D071F04795880F97FB991F61F09F3F79F060
S11306E087950895121613061406551FF2CF4695E2
S11306F0F1DF08C0161617061806991FF1CF869564
S11307007105610508940895E894BB276627772747
S1130710CB0197F908950E94160308F48FEF08950A
S11307200E94A3030C9451030E94430338F00E94D7
S11307304A0320F0952311F00C943A030C944003DF
S113074011240C9485030E94620370F3959FC1F3F6
S1130750950F50E0551F629FF001729FBB27F00D6B
S1130760B11D639FAA27F00DB11DAA1F649F6627C0
S1130770B00DA11D661F829F2227B00DA11D621F0F
S1130780739FB00DA11D621F839FA00D611D221FC9
S1130790749F3327A00D611D231F849F600D211DAD
S11307A0822F762F6A2F11249F5750409AF0F1F030
S11307B088234AF0EE0FFF1FBB1F661F771F881F99
S11307C091505040A9F79E3F510580F00C943A0394
S11307D00C9485035F3FE4F3983ED4F386957795B4
S11307E06795B795F795E7959F5FC1F7FE2B880F3F
S11107F0911D9695879597F90895F894FFCF7B
S9030000FC
